:020000040000FA
:10000000B8040020D5000000FB000000FD00000047
:1000100000000000000000000000000000000000E0
:10002000000000000000000000000000FF000000D1
:1000300000000000000000000101000003010000BA
:100040000501000005010000050100000501000098
:100050000501000005010000050100000501000088
:100060000501000005010000050100000501000078
:10007000E105000005010000050100000501000088
:100080000501000005010000050100000501000058
:100090000501000005010000050100000501000048
:1000A0000501000005010000050100000501000038
:1000B0000501000005010000050100000501000028
:1000C0000348854600F046F800480047ED0600006A
:1000D000B80400200C480D4901600D4901600D492C
:1000E00001600D4A0D4911600D4A0E491160002151
:1000F00001600D4880470D480047FEE7FEE7FEE738
:10010000FEE7FEE7FEE700000001004059000000A6
:10011000160000008800000024000040A55A0000DE
:100120008002004001000000A9050000C10000009D
:10013000D2B201E00270401C491EFBD2704700227F
:10014000F6E710B513460A4604461946FFF7F0FFD6
:10015000204610BD064C0125064E05E0E36807CC9D
:100160002B430C3C98471034B442F7D3FFF7ACFF55
:100170006C0700008C070000F0B5134C01261BE053
:10018000E0606160212801D11D68A5602661BFF390
:100190006F8F2569ED07FCD125686F0603D52560B3
:1001A0000020C043F0BD002802D0222808D001E082
:1001B000A5681D60091D1B1D9142E1D30020F0BD03
:1001C000FF31FF310231F6E700C0004038B50124AD
:1001D000A4036B46221D21460020FFF7CDFF002817
:1001E00001DA204638BD6400F3E70000F8B50027C7
:1001F000144A0C4605460F606B46111F3846FFF740
:10020000BBFF0098104EC00703D0306828602760FD
:10021000F8BD0C4A6B46121D111F0020FFF7ACFF02
:1002200000980203120B00923068824201D8D10577
:1002300006D00090286030680099401A2060F8BD10
:100240001046F7E7040030002400002010B501201C
:10025000800701680905090F012904D00168090513
:10026000090F062902D101680029FCD10F48416815
:100270000422114341600E480168092211430160C4
:10028000FFF7A4FF0B4908600B490C48FFF7AEFFCE
:100290000B4801680B4841430B48416100218161D3
:1002A000016905221143016110BD000000020040F8
:1002B00000C00040240000202C0000202800002066
:1002C00004000020E093040000E000E0F3B583B0F8
:1002D000039F864E049D3C680020706033460833BF
:1002E0000321834A0905083D08370093FFF744FFBF
:1002F000B0680221019008400290A42C18D0002C74
:100300007AD0FF2C6FD07B48A62C046114D001203A
:100310008007B12C13D0AB2C14D0AC2C12D0AD2C48
:1003200010D0AE2C26D0A02C28D0A32C26D045E06F
:1003300039687048C160E6E7342030725CE00068DC
:10034000B060BDE0032141606B49AB2C09D0086867
:10035000AC2C0AD040084000086069496748C86072
:10036000FEE7086880088000F6E780088000022227
:100370001043F1E75F490120C860A1E05D48826950
:10038000C069824200D30246002319462220FFF7AB
:10039000F3FEA32C0FD157480023C169006A0A1845
:1003A0002220FFF7E9FE019802210843B0600021F6
:1003B000009800F065F94F4901204861A02C13D046
:1003C000C32C04D0A12C1ED0FF2C2BD014E0494804
:1003D000C1690160006A002872D00A180023222037
:1003E000FFF7CAFE03E01DE042490020086079687B
:1003F0004048083D083741603E4C2069A02845D060
:10040000C32843D05CE03B4902984969084357D070
:100410003846009900F034F936492031081FFFF7BB
:10042000E5FE4DE0334D2968A8680A1A2A6069681C
:1004300014460818686033480440032000058442CD
:100440003ED22A4B214640330020FFF795FE002381
:10045000221D21462220FFF78FFE244B21464033E8
:1004600021202A68FFF788FE28880122A968C00594
:100470005202C00D511A884222D3E21DFF32FE32D1
:100480000023111F2220FFF777FE19E06068A842C1
:1004900000D20546401B606021683B464A19212076
:1004A000FFF76AFE29463846FFF749FE21683B46BA
:1004B0004A190020FFF760FE2068A56040192060FF
:1004C00000210846049B039A03E0145C611889B27A
:1004D000401C9842F9DB31800649C868401C7060B6
:1004E000401CC860002005B0F0BD000034000020B2
:1004F000100030000C00002000C000400400FA058D
:1005000000ED00E000FE0F000549064A00208B695F
:100510001B02FCD4135C0B60401C4028F7D37047CF
:10052000002007403400002010B559211C48162235
:1005300088230160026003600468002CF9D0194828
:100540000168042211430160164940310A69D2064C
:10055000FCD5026907231A430261026A12091201DB
:1005600002620A6801231B041A430A6081689A0028
:10057000114381604169072212069143032212064A
:1005800089184161016A0909090101629803816BB7
:10059000FF2212049143DD2212048918816310BDE9
:1005A000000100400002004010B559210A481623FE
:1005B00088220160036002600468002CF9D00749BA
:1005C0000B680722120593430B600B6813430B6003
:1005D0000021016010BD0000000100400002004049
:1005E00070B50F49CD6911200E4C05420DD00E4E4D
:1005F0008869400409D46078402806D20A68607887
:100600003318401C60701A70F2E7617800204029AE
:1006100003D0E90600D5607070BD01212170FAE7B2
:100620000020074030000020740200200E48016BBB
:10063000C908C90001630321C1600C4981600C49EC
:100640004162016A090A09024031016209490A68E6
:100650008023120A12021A430A60074A59011160E4
:100660000649416070470000002007403000030049
:100670009F0100300CE400E000E100E01108000000
:10068000F3B5104C20681027384320600E4DA601AA
:1006900000232A4631462220FFF76EFD2A463146C6
:1006A0002120009BFFF768FD0198002805D0034634
:1006B00031462A460020FFF75FFD2068B8432060DE
:1006C000FCBD000000C000400800300002E008C887
:1006D000121F08C1002AFAD170477047002001E0BC
:1006E00001C1121F002AFBD170470000FFF71CFF59
:1006F000FFF79CFFFFF7AAFD154A1649164B174C4A
:1007000000250878042802D22078012804D1106836
:10071000AE2811D025700D701869C003F1D50320E3
:100720000121890748600E48016889088900016035
:100730000D490C48C860FEE720780128FCD12570DF
:1007400040210348FFF7C2FDFFF7DEFEF4E700009B
:10075000740200203100002000E000E030000020A2
:1007600000C000400400FA0500ED00E08C07000026
:100770000000002034000000CC060000C00700008C
:100780003400002084040000DC06000000D8B80516
:100790006000000000D8B805000000000000000064
:1007A0000000000001000000000000000000000048
:1007B0000000000000000000000000000000000039
:04000005000000D522
:00000001FF
